40000
20012020        7431        0000455025001            PIMENTA ROSA GLAMOUR COMERCIO 219561783000100AV AMAZONAS, 685 LOJA 106               BELO HORIZONTE                        MGCENTRO                          30180000                                                                                                                                                                                                                           PIMENTA ROSA GLAMOUR COMERCIO LTDA-ME                                                                                                                                                                   Aluguel - ALUGUEL PERIODO 20/12/2019 A 19/01/2020 00454545Taxas boleto - CUSTO BOLETA BANCARIA              00000480                                                  00000000                                                  00000000                                                  00000000                                                  00000000                                                  00000000                                                  00000000                                                  00000000                                                  0000000000000228277    marcuspierrebaeta@hotmail.com                     1200120200000045454120012020000000015100000000000000000000000000000                                                                    
20012020        7432        0000189961001            PRISCILA RAMOS NETTO VIANA SOC211761534000157AV LUIZ PAULO FRANCO, 500 1301          BELO HORIZONTE                        MGBELVEDERE                       30320570                                                                                                                                                                                                                           PRISCILA RAMOS NETTO VIANA SOCIEDADE INDIVIDUAL DE                                                                                                                                                      Aluguel - ALUGUEL PERIODO 20/12/2019 A 19/01/2020 00100729Taxas boleto - CUSTO BOLETA BANCARIA              00000480Condominio - CONDOMINIO                           00088752                                                  00000000                                                  00000000                                                  00000000                                                  00000000                                                  00000000                                                  00000000                                                  0000000000000228278    consultoria@priscilaviana.com.br                  1200120200000010073120012020000000003400000000000000000000000000000                                                                    
20012020        7433        0000908101001            RADIOCENTRO DIAGNOSTICO POR IM265170771000172R RIO GRANDE DO NORTE, 33/LOJA 06 E 07 MBELO HORIZONTE                        MGSANTA EFIGENIA                  30130130                                                                                                                                                                                                                           RADIOCENTRO DIAGNOSTICO POR IMAGEM LTDA-EPP                                                                                                                                                             Aluguel - ALUGUEL PERIODO 21/12/2019 A 20/01/2020 00806607Taxas boleto - CUSTO BOLETA BANCARIA              00000480Condominio - CONDOMINIO                           00101014                                                  00000000                                                  00000000                                                  00000000                                                  00000000                                                  00000000                                                  00000000                                                  0000000000000228279    elizaradiocentro@gmail.com                        1200120200000080661120012020000000026900000000000000000000000000000                                                                    
20012020        7434        0000183944001            ROGER CALDAS RAMOS            100081170009549R ELI SEABRA FILHO, 105 APT. 401 02VGS  BELO HORIZONTE                        MGBURITIS                         30575740                                                                                                                                                                                                                           ROGER CALDAS RAMOS                                                                                                                                                                                      Aluguel - ALUGUEL PERIODO 20/12/2019 A 19/01/2020 00131464Taxas boleto - BOLETO                             00000480Condominio - CONDOMINIO                           00048000Condominio - DIFERENCA CONDOMINIO MES ANTERIOR    00004000                                                  00000000                                                  00000000                                                  00000000                                                  00000000                                                  00000000                                                  0000000000000228280    rogerramosterapeuta@gmail.com                     1200120200000013146120012020000000004400000000000000000000000000000                                                                    
20012020        7435        0000433594001            RONEIS RODRIGUES DA SILVA     100076781046691R JORNALISTA DJALMA ANDRADE, 1001 CASA  BELO HORIZONTE                        MGBELVEDERE                       30320540                                                                                                                                                                                                                           RONEIS RODRIGUES DA SILVA                                                                                                                                                                               Aluguel - ALUGUEL PERIODO 21/12/2019 A 20/01/2020 00433114Taxas boleto - CUSTO BOLETA BANCARIA              00000480                                                  00000000                                                  00000000                                                  00000000                                                  00000000                                                  00000000                                                  00000000                                                  00000000                                                  0000000000000228281    roneisrodrigues@gmail.com                         1200120200000043311120012020000000014400000000000000000000000000000                                                                    
20012020        7436        0000208286001            VAGNER EUSTAQUIO DE CARVALHO  100012534218620R JOAO AFONSO MOREIRA, 15 APTO 502 SOLARBELO HORIZONTE                        MGOURO PRETO                      31310130                                                                                                                                                                                                                           VAGNER EUSTAQUIO DE CARVALHO                                                                                                                                                                            Aluguel - ALUGUEL PERIODO 21/12/2019 A 20/01/2020 00161806Taxas boleto - CUSTO BOLETA BANCARIA              00000480Condominio - CONDOMINIO                           00048100Condominio - RESTITUICAO CONDOMINIO MES ANTERIOR  -0002100                                                  00000000                                                  00000000                                                  00000000                                                  00000000                                                  00000000                                                  0000000000000228282    vagner850@gmail.com                               1200120200000016181120012020000000005400000000000000000000000000000                                                                    
21012020        7437        0000210274001            ANDRE CORREA POLATSCHECK      100000885744667R LAVRAS, 457 APTO 101- 01 VAGA DE      BELO HORIZONTE                        MGSAO PEDRO                       30330010                                                                                                                                                                                                                           ANDRE CORREA POLATSCHECK                                                                                                                                                                                Aluguel - ALUGUEL PERIODO 21/12/2019 A 20/01/2020 00148094Taxas boleto - CUSTO BOLETA BANCARIA              00000480Condominio - CONDOMINIO                           00061700                                                  00000000                                                  00000000                                                  00000000                                                  00000000                                                  00000000                                                  00000000                                                  0000000000000228283    andrecopola@hotmail.com                           1210120200000014809121012020000000004900000000000000000000000000000                                                                    
21012020        7438        0000126285001            ARNALDO SILVEIRA              100088774180606R SAN SALVADOR, 101 APTO 1003 C 01 VG DEBELO HORIZONTE                        MGESTRELA DALVA                   30575020                                                                                                                                                                                                                           ARNALDO SILVEIRA                                                                                                                                                                                        Aluguel - ALUGUEL PERIODO 21/12/2019 A 20/01/2020 00085048Taxas boleto - CUSTO BOLETA BANCARIA              00000480Condominio - CONDOMINIO                           00028000Seguro fianca - SEGURO FIANCA - PARCELA 11/12     00012757                                                  00000000                                                  00000000                                                  00000000                                                  00000000                                                  00000000                                                  0000000000000228284                                                      1210120200000008505121012020000000002800000000000000000000000000000                                                                    
21012020        7439        0000094067001            EDUARDO RABELO DESCHAMPS DE AN100000133723607R TURFA, 1090 1                         BELO HORIZONTE                        MGBARROCA                         30431091                                                                                                                                                                                                                           EDUARDO RABELO DESCHAMPS DE ANDRADE                                                                                                                                                                     Aluguel - ALUGUEL PERIODO 21/12/2019 A 20/01/2020 00093587Taxas boleto - BOLETO                             00000480                                                  00000000                                                  00000000                                                  00000000                                                  00000000                                                  00000000                                                  00000000                                                  00000000                                                  0000000000000228285    financeiro@wamp.com.br                            1210120200000009359121012020000000003100000000000000000000000000000                                                                    
21012020        7440        0000326881001            MARIA CLARA FERNANDES DE OLIVE100005625932689R BERNARDO GUIMARAES, 1861 APTO 902-02 VBELO HORIZONTE                        MGLOURDES                         30140082                                                                                                                                                                                                                           MARIA CLARA FERNANDES DE OLIVEIRA                                                                                                                                                                       Aluguel - ALUGUEL PERIODO 21/12/2019 A 20/01/2020 00215909Taxas boleto - CUSTO BOLETA BANCARIA              00000480Condominio - CONDOMINIO                           00110492                                                  00000000                                                  00000000                                                  00000000                                                  00000000                                                  00000000                                                  00000000                                                  0000000000000228286    maria.clara.fernandes@vli-logistica.com.br        1210120200000021591121012020000000007200000000000000000000000000000                                                                    
21012020        7441        0000149564001            THIAGO MENEZES CAMPOS 09727918226851172000162R DOMINGOS VIEIRA, 343 SALA 1001        BELO HORIZONTE                        MGSANTA EFIGENIA                  30150242                                                                                                                                                                                                                           THIAGO MENEZES CAMPOS 09727918689-ME                                                                                                                                                                    Aluguel - ALUGUEL PERIODO 21/12/2019 A 20/01/2020 00096763Taxas boleto - CUSTO BOLETA BANCARIA              00000480Condominio - CONDOMINIO                           00052243Condominio - DIFERENCA CONDOMINIO MES ANTERIOR    00000078                                                  00000000                                                  00000000                                                  00000000                                                  00000000                                                  00000000                                                  0000000000000228287    contato@camposro.com.br                           1210120200000009676121012020000000003200000000000000000000000000000                                                                    
22012020        7442        0000183129001            ADRIANA FRANCO MURTA          100001309103682R SILVIANOPOLIS, 425 202                BELO HORIZONTE                        MGSANTA TEREZA                    31010410                                                                                                                                                                                                                           ADRIANA FRANCO MURTA                                                                                                                                                                                    Aluguel - ALUGUEL PERIODO 22/12/2019 A 21/01/2020 00146649Taxas boleto - CUSTO BOLETA BANCARIA              00000480Condominio - CONDOMINIO                           00036000                                                  00000000                                                  00000000                                                  00000000                                                  00000000                                                  00000000                                                  00000000                                                  0000000000000228288    adrianafmurta@yahoo.com.br                        1220120200000014665122012020000000004900000000000000000000000000000                                                                    
22012020        7443        0000874029001            ASSOCIACAO MINEIRA DA INDUSTRI219295989000136R PARAIBA, 1352/1305/02VAGAS 50 E 56 SAVBELO HORIZONTE                        MGFUNCIONARIOS                    30130141                                                                                                                                                                                                                           ASSOCIACAO MINEIRA DA INDUSTRIA FLORESTAL                                                                                                                                                               Aluguel - ALUGUEL PERIODO 22/12/2019 A 21/01/2020 00845563Taxas boleto - CUSTO BOLETA BANCARIA              00000480Condominio - CONDOMINIO - SALA 1305               00161866Condominio - CONDOMINIO - VAGA 56                 00011714IRRF                                              -0145594                                                  00000000                                                  00000000                                                  00000000                                                  00000000                                                  0000000000000228289    ivani@silviminas.com.br                           1220120200000084556122012020000000028200000000000000000000000000000                                                                    
22012020        7444        0000063452001            CAROLINA COSTA VIDIGAL        100007874020600R PADRE EUSTAQUIO, 300 A LOJA           BELO HORIZONTE                        MGCARLOS PRATES                   30710580                                                                                                                                                                                                                           CAROLINA COSTA VIDIGAL                                                                                                                                                                                  Aluguel - ALUGUEL PERIODO 01/12/2019 A 31/12/2019 00059250Taxas boleto - CUSTO BOLETA BANCARIA              00000480Agua - COPASA - 50%                               00002922Seguro incendio - SEGURO INCENDIO - PARCELA 1/12  00000800                                                  00000000                                                  00000000                                                  00000000                                                  00000000                                                  00000000                                                  0000000000000228290    carolcvidigal@hotmail.com                         1220120200000005925122012020000000002000000000000000000000000000000                                                                    
23012020        7445        0000600480001            LUISA FIGUEREDO MACHADO       100001684239109AV. PROFESSOR MARIO WERNECK (ANTIGO NO12BELO HORIZONTE                        MGBURITIS                         30575180                                                                                                                                                                                                                           LUISA FIGUEREDO MACHADO                                                                                                                                                                                 Aluguel - ALUGUEL PERIODO 23/12/2019 A 22/01/2020 00855834Desconto aluguel - DESCONTO ALUGUEL - PARCELA 12/1-0255834Taxas boleto - CUSTO BOLETA BANCARIA              00000480                                                  00000000                                                  00000000                                                  00000000                                                  00000000                                                  00000000                                                  00000000                                                  0000000000000228291    lufigueredomachado@gmail.com                      1230120200000085583123012020000000028500000000000000000000000000000                                                                    
23012020        7446        0000161904001            MARCONDES FRANCO DA SILVA     100000712850678AV OTACILIO NEGRAO DE LIMA, 4240 LOTE   BELO HORIZONTE                        MGBANDEIRANTES                    31365450                                                                                                                                                                                                                           MARCONDES FRANCO DA SILVA                                                                                                                                                                               Aluguel - ALUGUEL PERIODO 23/12/2019 A 22/01/2020 00161424Taxas boleto - BOLETO                             00000480                                                  00000000                                                  00000000                                                  00000000                                                  00000000                                                  00000000                                                  00000000                                                  00000000                                                  0000000000000228292    marcondespsiquiatra@gmail.com                     1230120200000016142123012020000000005400000000000000000000000000000                                                                    
COBRAR MULTA DE  A PARTIR DE                                          COBRAR JUROS DE  AO DIA A PARTIR DE                                                                                                                                                                                                                                                                                                                                                                                                                                                             