40000
01022020        7496        0000277844001            AGENOR EVARISTO MEIRA         100031525857649R TAMOIOS, 912 SALAO 202                BELO HORIZONTE                        MGCENTRO                          30120050                                                                                                                                                                                                                           AGENOR EVARISTO MEIRA                                                                                                                                                                                   Aluguel - ALUGUEL PERIODO 01/01/2020 A 31/01/2020 00225000Taxas boleto - CUSTO BOLETA BANCARIA              00000480Iptu - PARCELA 1/11                               00052364                                                  00000000                                                  00000000                                                  00000000                                                  00000000                                                  00000000                                                  00000000                                                  0000000000000228342    guarani@eletronicaguarani.com.br                  1010220200000022500101022020000000007500000000000000000000000000000                                                                    
01022020        7497        0000526617001            AJEJE CICCONE ESTETICA LTDA   226122536000173R MINISTRO OROZIMBO NONATO, 102 SLS 1002NOVA LIMA                             MGVILA DA SERRA                   34006053                                                                                                                                                                                                                           AJEJE CICCONE ESTETICA LTDA                                                                                                                                                                             Aluguel - ALUGUEL PERIODO 01/01/2020 A 31/01/2020 00412822Taxas boleto - CUSTO BOLETA BANCARIA              00000480Condominio                                        00112715Condominio - DIFERENCA CONDOMINIO MES ANTERIOR    00000600                                                  00000000                                                  00000000                                                  00000000                                                  00000000                                                  00000000                                                  0000000000000228343    viladaserra@aprimori.com.br                       1010220200000041282101022020000000013700000000000000000000000000000                                                                    
01022020        7498        0000189715001            ALINE MACHADO FERREIRA        100007079076676AV BARAO HOMEM DE MELO, 4520 APTO 1503  BELO HORIZONTE                        MGESTORIL                         30450250                                                                                                                                                                                                                           ALINE MACHADO FERREIRA                                                                                                                                                                                  Aluguel - ALUGUEL PERIODO 01/01/2020 A 31/01/2020 00110000Taxas boleto                                      00000480Condominio                                        00054570Seguro fianca - PARCELA 3/12                      00012870Iptu - PARCELA 1/11                               00011795                                                  00000000                                                  00000000                                                  00000000                                                  00000000                                                  0000000000000228344    gustavo.machado83@gmail.com                       1010220200000011000101022020000000003700000000000000000000000000000                                                                    
01022020        7499        0000250454001            AURELIANO MAGELA DE REZENDE   100078889030615R PROFESSOR ANTONIO ALEIXO, 744 APT. 601BELO HORIZONTE                        MGLOURDES                         30180150                                                                                                                                                                                                                           AURELIANO MAGELA DE REZENDE                                                                                                                                                                             Aluguel - ALUGUEL PERIODO 01/01/2020 A 31/01/2020 00159279Taxas boleto - CUSTO BOLETA BANCARIA              00000480Iptu - PARCELA 1/11                               00016730Condominio                                        00097565Condominio - RESTITUICAO CONDOMINIO MES ANTERIOR  -0023600                                                  00000000                                                  00000000                                                  00000000                                                  00000000                                                  0000000000000228345    aurelianorezende@gmail.com                        1010220200000015928101022020000000005300000000000000000000000000000                                                                    
01022020        7500        0000455690001            CASA & TINTA COMERCIAL LTDA   220841771000119R JOSE RODRIGUES PEREIRA (ANTIGO 1138), BELO HORIZONTE                        MGBURITIS                         30455640                                                                                                                                                                                                                           CASA & TINTA COMERCIAL LTDA                                                                                                                                                                             Aluguel - ALUGUEL PERIODO 01/01/2020 A 31/01/2020 00420000Taxas boleto - CUSTO BOLETA BANCARIA              00000480Iptu - PARCELA 1/11                               00062319Condominio                                        00007984Condominio - RESTITUICAO CONDOMINIO MES ANTERIOR  -0035093                                                  00000000                                                  00000000                                                  00000000                                                  00000000                                                  0000000000000228346    roselimozer@casaetinta.com.br                     1010220200000042000101022020000000014000000000000000000000000000000                                                                    
01022020        7501        0000313162001            CLEMENTINO E LOUREIRO ADVOCACI207308868000100R ARAGUARI, 358 SALA 1002               BELO HORIZONTE                        MGBARRO PRETO                     30190110                                                                                                                                                                                                                           CLEMENTINO E LOUREIRO ADVOCACIA                                                                                                                                                                         Aluguel - ALUGUEL PERIODO 01/01/2020 A 31/01/2020 00215500Iptu - IPTU - PARCELA 1/11                        00029780Taxas boleto - CUSTO BOLETA BANCARIA              00000480Condominio                                        00063702Condominio - DIFERENCA CONDOMINIO MES ANTERIOR    00003700                                                  00000000                                                  00000000                                                  00000000                                                  00000000                                                  0000000000000228347    gestao@claw.adv.br                                1010220200000021550101022020000000007200000000000000000000000000000                                                                    
01022020        7502        0000344718001            CRISTIANA QUEIROZ FREITAS OLIV100005511412635R SAO PAULO, 1238 1803                  BELO HORIZONTE                        MGCENTRO                          30170133                                                                                                                                                                                                                           CRISTIANA QUEIROZ FREITAS OLIVEIRA                                                                                                                                                                      Aluguel - ALUGUEL PERIODO 01/01/2020 A 31/01/2020 00210000Taxas boleto                                      00000480Seguro fianca - PARCELA 9/12                      00024570Condominio                                        00079900Iptu - PARCELA 1/11                               00029768                                                  00000000                                                  00000000                                                  00000000                                                  00000000                                                  0000000000000228348    cristianaqueiroz@gmail.com                        1010220200000021000101022020000000007000000000000000000000000000000                                                                    
01022020        7503        0000325379001            DIEGO ORNELLAS SILVA MAGALHAES100010223549657R SAO PAULO, 1238 1802                  BELO HORIZONTE                        MGCENTRO                          30170133                                                                                                                                                                                                                           DIEGO ORNELLAS SILVA MAGALHAES                                                                                                                                                                          Aluguel - ALUGUEL PERIODO 01/01/2020 A 31/01/2020 00215231Taxas boleto - CUSTO BOLETA BANCARIA              00000480Condominio - CONDOMINIO                           00079900Iptu - PARCELA 1/11                               00029768                                                  00000000                                                  00000000                                                  00000000                                                  00000000                                                  00000000                                                  0000000000000228349    diegoosm@icloud.com                               1010220200000021523101022020000000007200000000000000000000000000000                                                                    
01022020        7504        0000352063001            DIEGO VINICIUS LIMA           100009397783602R ARAGUARI, 1750 LOJA 1                 BELO HORIZONTE                        MGSANTO AGOSTINHO                 30190111                                                                                                                                                                                                                           DIEGO VINICIUS LIMA                                                                                                                                                                                     Aluguel - ALUGUEL PERIODO 01/01/2020 A 31/01/2020 00319584Taxas boleto - BOLETO                             00000480Condominio - CONDOMINIO                           00004207Iptu - PARCELA 1/11                               00027792                                                  00000000                                                  00000000                                                  00000000                                                  00000000                                                  00000000                                                  0000000000000228350    hasuoriental@gmail.com                            1010220200000031958101022020000000010600000000000000000000000000000                                                                    
01022020        7505        0000297313001            DOLMA RODRIGUES RIBEIRO       100049311727687R PEDRO NATALICIO MORAIS, 275 APTO 301  BELO HORIZONTE                        MGBURITIS                         30575275                                                                                                                                                                                                                           DOLMA RODRIGUES RIBEIRO                                                                                                                                                                                 Aluguel - ALUGUEL PERIODO 01/01/2020 A 31/01/2020 00279438Taxas boleto - CUSTO BOLETA BANCARIA              00000480Iptu - PARCELA 1/11                               00008227Agua - COPASA                                     00009168                                                  00000000                                                  00000000                                                  00000000                                                  00000000                                                  00000000                                                  0000000000000228351    artdolma@hotmail.com                              1010220200000027944101022020000000009300000000000000000000000000000                                                                    
01022020        7506        0000335465001            ESTEVES E SA LTDA-ME          213296737000145R PARACATU, 271 LOJA                    BELO HORIZONTE                        MGBARRO PRETO                     30180090                                                                                                                                                                                                                           ESTEVES E SA LTDA-ME                                                                                                                                                                                    Aluguel - ALUGUEL PERIODO 01/01/2020 A 31/01/2020 00350380Desconto aluguel - DESCONTO ALUGUEL - PARCELA 7/12-0052229Taxas boleto - CUSTO BOLETA BANCARIA              00000480Iptu - PARCELA 1/11                               00036834                                                  00000000                                                  00000000                                                  00000000                                                  00000000                                                  00000000                                                  0000000000000228352    campanario271@gmail.com                           1010220200000035038101022020000000011700000000000000000000000000000                                                                    
01022020        7507        0000202942001            FABIANA LOPES CANCADO         100008415400632R RIO GRANDE DO SUL, 315                BELO HORIZONTE                        MGCENTRO                          30170110                                                                                                                                                                                                                           FABIANA LOPES CANCADO                                                                                                                                                                                   Aluguel - ALUGUEL PERIODO 01/01/2020 A 31/01/2020 00180000Taxas boleto                                      00000480Iptu - PARCELA 1/11                               00022462                                                  00000000                                                  00000000                                                  00000000                                                  00000000                                                  00000000                                                  00000000                                                  0000000000000228353    loiralops27@gmail.com                             1010220200000018000101022020000000006000000000000000000000000000000                                                                    
01022020        7508        0000185097001            FABRICIO DE ALMEIDA TOLEDO    100001402028628PRACA HUGO WERNECK, 537 APTO 1904       BELO HORIZONTE                        MGSANTA EFIGENIA                  30150300                                                                                                                                                                                                                           FABRICIO DE ALMEIDA TOLEDO                                                                                                                                                                              Aluguel - ALUGUEL PERIODO 01/01/2020 A 31/01/2020 00093895Taxas boleto - BOLETO BANCARIO                    00000480Condominio - CONDOMINIO                           00076463Iptu - PARCELA 1/11                               00014259                                                  00000000                                                  00000000                                                  00000000                                                  00000000                                                  00000000                                                  0000000000000228354    fabricio.toledo@gmail.com                         1010220200000009390101022020000000003100000000000000000000000000000                                                                    
01022020        7509        0000255256001            GIOVANNI RESENDE BARBOSA DE FR215388349000110R PADRE EUSTAQUIO, 2728 LOJA 03         BELO HORIZONTE                        MGPADRE EUSTAQUIO                 30720100                                                                                                                                                                                                                           GIOVANNI RESENDE BARBOSA DE FREITAS                                                                                                                                                                     Aluguel - ALUGUEL PERIODO 02/01/2020 A 01/02/2020 00250000Taxas boleto - CUSTO BOLETA BANCARIA              00000260Iptu - PARCELA 1/11                               00004996                                                  00000000                                                  00000000                                                  00000000                                                  00000000                                                  00000000                                                  00000000                                                  0000000000000228355    giovanni_resende@yahoo.com.br                     1010220200000025000101022020000000008300000000000000000000000000000                                                                    
01022020        7510        0000110720001            H PAIVA EMPREENDIMENTOS IMOBIL218795877000181AV PROFESSOR MARIO WERNECK, 882 809     BELO HORIZONTE                        MGESTORIL                         30455610                                                                                                                                                                                                                           H PAIVA EMPREENDIMENTOS IMOBILIARIO EIRELI-ME                                                                                                                                                           Aluguel - ALUGUEL PERIODO 01/01/2020 A 31/01/2020 00065193Taxas boleto - CUSTO BOLETO BANCARIO              00000480Iptu - PARCELA 1/11                               00016780Condominio                                        00031984Condominio - RESTITUICAO CONDOMINIO MES ANTERIOR  -0003717                                                  00000000                                                  00000000                                                  00000000                                                  00000000                                                  0000000000000228356    a@a.com.br                                                  1010220200000006519101022020000000002200000000000000000000000000000                                                                    
01022020        7511        0000205544001            JOSE MARIA SCHWENCK           100024380474615R PERNAMBUCO, 1070 LOJA 123             BELO HORIZONTE                        MGFUNCIONARIOS                    30130151                                                                                                                                                                                                                           JOSE MARIA SCHWENCK                                                                                                                                                                                     Aluguel - ALUGUEL PERIODO 01/01/2020 A 31/01/2020 00161000Taxas boleto - BOLETO                             00000480Iptu - PARCELA 6/11                               00012039Condominio                                        00041610Condominio - RESTITUICAO CONDOMINIO MES ANTERIOR  -0009585                                                  00000000                                                  00000000                                                  00000000                                                  00000000                                                  0000000000000228357    schwenckcabeleireiros@gmail.com                   1010220200000032200101022020000000005400000000000000000000000000000                                                                    
01022020        7512        0000346032001            MANG INOX BRASIL LTDA -EPP    227847519000166R VILA REAL, 1020                       BELO HORIZONTE                        MGSAO FRANCISCO                   31255150                                                                                                                                                                                                                           MANG INOX BRASIL LTDA -EPP                                                                                                                                                                              Aluguel - ALUGUEL PERIODO 01/01/2020 A 31/01/2020 00319234Taxas boleto - BOLETO                             00000480Iptu - PARCELA 1/11                               00026318                                                  00000000                                                  00000000                                                  00000000                                                  00000000                                                  00000000                                                  00000000                                                  0000000000000228358    financeiro@manginox.com.br                        1010220200000031923101022020000000010600000000000000000000000000000                                                                    
COBRAR MULTA DE  A PARTIR DE                                          COBRAR JUROS DE  AO DIA A PARTIR DE                                                                                                                                                                                                                                                                                                                                                                                                                                                             